:020000040800F2
:10000000A01101203903000865400008D933000819
:1000100061400008D9080008414B000800000000BA
:10002000000000000000000000000000790200084D
:10003000370B000800000000D5020008CD4300087F
:10004000530300085303000853030008FD40000851
:100050005303000853030008530300085303000828
:100060005303000853030008530300085303000818
:100070005303000853030008530300085303000808
:100080005303000853030008530300080000000056
:100090000000000000000000000000005303000802
:1000A00053030008B1440008530300085303000839
:1000B00053030008530300085303000853030008C8
:1000C00053030008530300085303000853030008B8
:1000D00053030008314B00085303000800000000E0
:1000E00053030008530300085303000800000000F6
:1000F00000000000000000000000000053030008A2
:1001000000000000530300085303000853030008D5
:1001100000000000000000000000000000000000DF
:100120005303000853030008FD09000853030008A7
:100130005303000800000000000000000000000061
:100140000000000000000000000000005303000851
:100150000D0A0008530300081D0A00085303000895
:1001600053030008530300080000000000000000D3
:10017000000000000000000000000000000000007F
:100180000000000053030008000000000000000011
:10019000530300085303000800F002F800F05CF875
:1001A0000AA090E8000C82448344AAF10107DA45D2
:1001B00001D100F051F8AFF2090EBAE80F0013F0C8
:1001C000010F18BFFB1A43F00103184740C1030099
:1001D00060C103000A444FF0000C10F8013B13F01B
:1001E000070408BF10F8014B1D1108BF10F8015B90
:1001F000641E05D010F8016B641E01F8016BF9D183
:1002000013F0080F1EBF10F8014BAD1C0C1B09D1D9
:100210006D1E58BF01F801CBFAD505E014F8016B4B
:1002200001F8016B6D1EF9D59142D6D370470000DD
:100230000023002400250026103A28BF78C1FBD8EF
:10024000520728BF30C148BF0B6070471FB534F05C
:1002500055F81FBD10B510BD00F053FA1146FFF759
:10026000F5FF2CF041FA00F071FA03B4FFF7F2FF4A
:1002700003BC00F079FA00002C4B19680868B0E85C
:10028000F04F80F30988BFF36F8F4FF0000080F3C9
:10029000118870470000000008480068006880F37B
:1002A00008884FF0000080F3148862B661B6BFF38F
:1002B0004F8FBFF36F8F00DF00BF00BF08ED00E07E
:1002C000DFF80C00016841F470010160704700BF65
:1002D00088ED00E0EFF30980BFF36F8F134B1A68CE
:1002E0001EF0100F08BF20ED108A20E9F04F1060BB
:1002F00009B44FF0500080F31188BFF34F8FBFF364
:100300006F8F32F0F3FF4FF0000080F3118809BCCB
:1003100019680868B0E8F04F1EF0100F08BFB0EC85
:10032000108A80F30988BFF36F8F70472000002088
:10033000EFF30580704700000948804709480047EF
:10034000FEE7FEE7FEE7FEE7FEE7FEE7FEE7FEE785
:10035000FEE7FEE704480549054A064B70470000E2
:100360009D44000899010008A00B0120A011012064
:10037000A00D0120A00D012053EA020C00F06980BD
:100380002DE9F04B4FF00006002B1FBFB3FA83F5A9
:1003900003FA05F424FA05F65E4012BF1643B2FADA
:1003A00082F502FA05F4C5F120051EBF22FA05FC0C
:1003B00044EA0C04203556EA044C4FEA144418BFB2
:1003C000641C4FF000084FF00009904271EB030CE1
:1003D00039D3002919BFB1FA81F701FA07F6B0FA4B
:1003E00080F700FA07F6C7F120071EBF20FA07FCC6
:1003F00046EA0C062037B6FBF4FCA7EB0507103FD6
:1004000007F01F0BCBF120060CFA0BFB2CFA06F6BB
:1004100044BFB3460026202FA4BF5E464FF0000B1A
:100420005BEA060C08BF4FF0010B19EB0B09ABFBA5
:10043000027C48EB0608C01B06FB02CC0BFB03CC7E
:1004400071EB0C01C1E70B46024641464846BDE848
:10045000F08B13B54FF000004FF00001AFF30080B8
:10046000BDE81C40704740EA0103024630B59B07D7
:1004700010D14FF0013400E008C208C91D1B9D4394
:1004800015EAC41FF8D013F0FF0102F8011B0DD0CC
:100490001B0AF8E711F8013B002B02F8013B05D0DD
:1004A00011F8013B002B02F8013BF3D130BD10B530
:1004B000431C02E010F8011B71B18107FAD14FF023
:1004C000013202C88C1A8C4314EAC211F9D0C01A46
:1004D0000A0603D0C01E10BDC01A10BD0A0401D008
:1004E000801E10BD0902FCD0401E10BD032A40F240
:1004F000308010F0030C00F0158011F8013BBCF1C6
:10050000020F624498BF11F801CB00F8013B38BFDD
:1005100011F8013BA2F1040298BF00F801CB38BFEB
:1005200000F8013B11F0030300F02580083AC0F009
:10053000088051F8043B083A51F804CBA0E80810B1
:10054000F5E7121D5CBF51F8043B40F8043BAFF3E4
:100550000080D20724BF11F8013B11F801CB48BF3E
:1005600011F8012B24BF00F8013B00F801CB48BF74
:1005700000F8012B704710B5203AC0F00B80B1E8AD
:100580001850203AA0E81850B1E81850A0E81850C8
:10059000BFF4F5AF5FEA027C24BFB1E81850A0E8D1
:1005A000185044BF18C918C0BDE810405FEA827CEB
:1005B00024BF51F8043B40F8043B08BF7047D20702
:1005C00028BF31F8023B48BF11F8012B28BF20F8A3
:1005D000023B48BF00F8012B704702F0FF0343EADB
:1005E000032242EA024200F06CB84FF0000200B56C
:1005F000134694469646203922BFA0E80C50A0E846
:100600000C50B1F12001BFF4F7AF090728BFA0E8F3
:100610000C5048BF0CC05DF804EB890028BF40F8BF
:10062000042B08BF704748BF20F8022B11F0804F01
:1006300018BF00F8012B70474FF0013C50F8042B15
:1006400051F8043B9A4221D1A2EB0C03934313EAE5
:10065000CC1317D150F8042B51F8043B9A4215D112
:10066000A2EB0C03934313EACC130BD150F8042BE9
:1006700051F8043B9A4209D1A2EB0C03934313EACD
:10068000CC13DBD04FF00000704700BFD01A01BA86
:10069000B1FA81F101F0180122FA01F0CB40C1F169
:1006A0002001DBB2C0B2C01A2CFA01F3D11A914377
:1006B00011EAC311E6D170477047704770474FF099
:1006C00000020429C0F0128010F0030C3FF48FAF39
:1006D000CCF1040CBCF1020F18BF00F8012BA8BF2D
:1006E00020F8022BA1EB0C01FFF781BF5FEAC17C70
:1006F00024BF00F8012B00F8012B48BF00F8012BA4
:100700007047754600F02CF8AE4605006946534622
:1007100020F00700854618B020B5FFF71BFEBDE8A6
:1007200020404FF000064FF000074FF000084FF058
:10073000000B21F00701AC46ACE8C009ACE8C009E9
:10074000ACE8C009ACE8C0098D46704710B5044656
:10075000AFF300802046BDE81040FFF786BD0000E3
:10076000004870473C0B012001491820ABBEFEE752
:10077000260002007047000055494A6822F44032C2
:100780004A604A6843681A434A600268526822F421
:10079000807203685A6002685368026943EA022261
:1007A00003685A600268526822F0407203685A6017
:1007B0000268526883681A4303685A600268926844
:1007C00022F4006203689A6002689268C3681A4360
:1007D00003689A603F4B826A9A4218D00268926816
:1007E00022F0706203689A6002689268836A1A4312
:1007F00003689A600268926822F0405203689A6027
:1008000002689268C36A1A4303689A600BE0026840
:10081000926822F0706203689A600268926822F01F
:10082000405203689A600268926822F002020368EC
:100830009A6002689368027E43EA420203689A6003
:100840002022125CA2B10268526842F4006203687E
:100850005A600268526822F4604203685A60026873
:100860005368426A521E43EA423203685A6005E006
:100870000268526822F4006203685A600268D26A11
:1008800022F470020368DA620268D36A828B521E15
:1008900043EA02520368DA620268926822F4007244
:1008A00003689A600268936890F8302043EA422215
:1008B00003689A600268926822F4806203689A6012
:1008C00002689368426943EA822203689A6070472B
:1008D000002301400100000F00BFFEE710B50446F1
:1008E0002146F92000F076F810BD000000B587B071
:1008F000142102A8FFF779FE00BF002001901948DB
:10090000006840F00200174908600846006800F0DF
:100910000200019000BF00BF00BF00200190084608
:10092000006840F0010008600846006800F001001F
:10093000019000BF00BF4FF40040029001200390DF
:1009400004900320059002A9074800F0B3FC01229F
:10095000D103054800F09AFD044802F09FFD07B05E
:1009600000BD00003038024000000240BC02002000
:1009700010B5022000F024F810BD00001CB501A83D
:1009800004230322152100900B4802F090FE9DF8ED
:1009900005009DF8041001F00F0140EA012007490D
:1009A00008609DF807009DF8061001F00F0140EA6D
:1009B0000120024948601CBDBC020020B402002096
:1009C00010B5044622461521014802F0B7FE10BDBD
:1009D000BC02002070B504460D462B462246152168
:1009E000014802F0DCFE70BDBC02002010B5FFF72C
:1009F0007DFF0520FFF772FF10BD000010B5024813
:100A000000F078FA10BD00008803002010B50248FD
:100A100000F070FA10BD00007804002010B5024804
:100A200000F068FA10BD0000D804002001460878E4
:100A300010381823B0FBF3F20848805CC865032A1D
:100A400005D908686FF30900001D886503E0086890
:100A50006FF309008865886D70470000EC84030817
:100A6000014600208A6A8B69CBB932B1012A0DD0C8
:100A7000022A03D0032A10D10EE000BFCB6A03F094
:100A80008073B3F1807F00D1012007E0CB6AB3F11E
:100A9000C07F00D1012001E000E000BF34E08B699D
:100AA000B3F5005F1AD132B1012A07D0022A03D070
:100AB000032A11D10AE000BF01200EE0CB6A03F047
:100AC0008073B3F1807F00D1012006E0CB6AB3F1DF
:100AD000C07F00D1012000E000BF15E032B1012A43
:100AE00005D0022A04D0032A0CD103E000BF00BFC6
:100AF000012008E0CB6A03F08073B3F1807F00D15E
:100B0000012000E000BF00BF704730B504682468D2
:100B100024F4802405682C60046863608468402C99
:100B200004D10468A2600468E16003E00468A16085
:100B30000468E26030BD704772B600BFFEE7000097
:100B400038B502460020009000BF92F83C00012812
:100B500001D1022038BD012082F83C0000BF0868A6
:100B6000092816D91068C0680C780A3C04EB4405C3
:100B70000724AC40A0431468E0600C780A3C04EB06
:100B800044048868A0401468E46820431468E06066
:100B900013E0106800690C7804EB44050724AC40AE
:100BA000A043146820610C7804EB44048868A040DA
:100BB000146824692043146820614868072817D204
:100BC0001068406B0C79641E04EB84051F24AC4054
:100BD000A04314686063088880B20C79641E04EB3B
:100BE0008404A0401468646B20431468606331E09F
:100BF00048680D2817D21068006B0C79E41F04EBCD
:100C000084051F24AC40A04314682063088880B288
:100C10000C79E41F04EB8404A0401468246B204387
:100C20001468206316E01068C06A0C790D3C04EB70
:100C300084051F24AC40A0431468E062088880B299
:100C40000C790D3C04EB8404A0401468E46A204352
:100C50001468E0621E4B1F4C1068A0420AD108685D
:100C6000122807D1586820F400005860586840F4F2
:100C700080005860174C1068A04222D1164C0868BA
:100C8000A04202D0086811281BD1586820F48000C7
:100C90005860586840F4000058600F4C0868A04243
:100CA0000FD10E4800680E4CB0FBF4F000EB800052
:100CB0004000009002E00098401E0090009800283C
:100CC000F9D100BF002082F83C0000BF00BF41E71F
:100CD000002301400020014012000010A00200206B
:100CE00040420F0070B5044600250CB9012070BDCC
:100CF0001549A06A884200D000BF206C30B9204658
:100D000000F024F80020606484F83C00206C00F0BF
:100D1000100088B9206C20F4885040F00200206454
:100D20002046FFF729FD00206064206C20F00200BF
:100D300040F00100206400E0012500BF002084F89D
:100D40003C0000BF2846D2E70100000F10B586B076
:100D50000446142101A8FFF748FC1949206888427D
:100D60002BD100BF002000901648006840F480702E
:100D7000144908600846006800F48070009000BFC5
:100D800000BF00BF002000900E481438006840F0FB
:100D900001000C49143908600846006800F00100A1
:100DA000009000BF00BF02200190032002900020AD
:100DB000039001A9044800F07DFA06B010BD0000C0
:100DC00000200140443802400000024010B50446B3
:100DD0000CB9012010BD607920B900202071204697
:100DE00000F004F8012060710020F3E708B50A4A1A
:100DF000016891420FD100BF0021009107490968A5
:100E000041F48051054A11601146096801F480518E
:100E1000009100BF00BF08BD0030024030380240E2
:100E200070B50446A56D00F037FB064694F8350012
:100E3000022808D08020606500BF002084F83400BC
:100E400000BF012070BD2068006820F016002168F6
:100E500008602068406920F0800021684861206CAB
:100E600008B9A06C28B12068006820F0080021684B
:100E700008602068006820F001002168086010E028
:100E800000F00AFB801B05280BD920206065032099
:100E900084F8350000BF002084F8340000BF032030
:100EA000D0E72068006800F001000028E8D194F83D
:100EB0005C103F208840A860012084F8350000BF06
:100EC000002084F8340000BF00BFBBE7014691F862
:100ED0003500022803D08020486501207047052096
:100EE00081F835000868006820F001000A68106089
:100EF0000020F3E7F8B50446002000908C48006815
:100F00004FF41651B0FBF1F7A56D2E6894F85C1004
:100F100008208840304098B12068006800F0040044
:100F200070B12068006820F004002168086094F81F
:100F30005C1008208840A860606D40F0010060658A
:100F400094F85C1001208840304068B12068406906
:100F500000F0800040B194F85C1001208840A86047
:100F6000606D40F00200606594F85C1004208840D9
:100F7000304068B12068006800F0020040B194F889
:100F80005C1004208840A860606D40F0040060653B
:100F900094F85C1010208840304078B320680068D6
:100FA00000F0080050B394F85C1010208840A8604E
:100FB0002068006800F4802080B12068006800F498
:100FC000002028B9206CC8B12046216C884715E064
:100FD000A06C98B12046A16C88470FE0206800689B
:100FE00000F4807028B92068006820F008002168AB
:100FF0000860206C10B12046216C884794F85C1082
:10100000202088403040002865D02068006800F02B
:10101000100000285FD094F85C1020208840A86061
:1010200094F83500052828D12068006820F01600C3
:10103000216808602068406920F0800021684861CC
:10104000206C08B9A06C28B12068006820F0080066
:101050002168086094F85C103F208840A860012057
:1010600084F8350000BF002084F8340000BF206DF4
:1010700010B12046216D8847F8BD2068006800F453
:10108000802080B12068006800F4002028B9606CDE
:1010900010B12046616C88471DE0E06BD8B1204656
:1010A000E16B884717E02068006800F4807068B939
:1010B0002068006820F0100021680860012084F892
:1010C000350000BF002084F8340000BFE06B10B191
:1010D0002046E16B8847606D38B3606D00F0010019
:1010E000F0B1052084F835002068006820F0010088
:1010F0002168086000BF0098401C0090B84200D9E9
:1011000005E02068006800F001000028F3D100BF6E
:10111000012084F8350000BF002084F8340000BFAF
:10112000E06C10B12046E16C884700BFA4E70000E6
:10113000A00200202DE9F0410446002500F0ACF9A2
:10114000074614B90120BDE8F081606A00B100BF14
:10115000022084F8350000BF002084F8340000BF6E
:101160002068006820F00100216808600AE000F0B3
:1011700093F9C01B052805D920206065032084F859
:101180003500E0E72068006800F001000028EED19B
:101190002068056821480540D4E901010843E16859
:1011A00008432169084361690843A1690843E1696B
:1011B0000843216A08430543606A042803D1D4E93F
:1011C0000B0108430543206805602068456925F048
:1011D0000705606A0543606A04280DD1A06A0543CB
:1011E000E06A48B12046FFF73BFC28B1402060652B
:1011F000012084F83500A6E7206845612046FFF706
:1012000015FC064694F85C103F208840B060002032
:101210006065012084F83500002094E73F8010F0DD
:101220002DE9F04704460D4616461F464FF00008CC
:10123000D4F8589000BF94F83400012802D102205D
:10124000BDE8F087012084F8340000BF94F8350031
:10125000012825D1022084F83500002060653B4636
:10126000324629462046FFF750FC94F85C103F2098
:101270008840C9F808002068006840F0160021681E
:101280000860206C28B12068006840F008002168E0
:1012900008602068006840F001002168086006E0EE
:1012A00000BF002084F8340000BF4FF00208404621
:1012B000C6E70000F8B502460B46002500240020D2
:1012C0000021C7E0012606FA01F51E6806EA0504BA
:1012D000AC4274D11E7906F00306012E04D01E79AB
:1012E00006F00306022E13D190684F000326BE407D
:1012F000B0434F00DE68BE40304390605068012626
:101300008E40B0431E79C6F300168E4030435060C5
:101310001E7906F00306032E09D0D0684F0003267D
:10132000BE40B0434F009E68BE403043D0601E793F
:1013300006F00306022E13D1CF0802F1200656F85C
:1013400027004E07F70E0F26BE40B0434F07FF0E93
:101350001E69BE403043CF0802F1200646F8270040
:1013600010684F000326BE40B0431E7906F0030606
:101370004F00BE40304310605E6806F44036002ED9
:1013800067D000BF00260096344E366846F480468B
:10139000324F3E603E46366806F48046009600BFF7
:1013A00000BF2F4E8F0856F827008E07370F0F26E5
:1013B000BE40B0432B4EB24202D1002615E048E0B9
:1013C000294EB24201D101260FE0284EB24201D18E
:1013D00002260AE0264EB24201D1032605E0254E40
:1013E000B24201D1042600E007268F073F0FBE401E
:1013F00030431B4E8F0846F827001F4E3068A0432D
:101400005E6806F4801606B120431B4E3060361D20
:101410003068A0435E6806F4001606B12043164EFD
:10142000361D3060144E361F3068A0435E6806F4E7
:10143000003606B12043104E361F3060361F30682C
:10144000A0435E6806F4803606B120430A4E083E8B
:101450003060491C1029FFF435AFF8BD4438024014
:101460000838014000000240000402400008024029
:10147000000C024000100240083C01400246136983
:101480000B400BB1012000E0002070470AB18161E0
:1014900001E00B0483617047014800687047000059
:1014A000A402002003480068034909780844014960
:1014B00008607047A4020020AC02002010B50D485F
:1014C000006840F400700B4908600846006840F46A
:1014D000806008600846006840F48070086003205F
:1014E00000F0D6F80F2000F007F800F055F80020C3
:1014F00010BD0000003C0240F0B587B00446002655
:10150000002700BF002000901E48006840F0010046
:101510001C4908600846006800F00100009000BF08
:1015200000BF01A902A800F065FA00F09BFA064688
:101530001548B6FBF0F0471E14481549086040F204
:10154000E7311348C160476000210161816081611A
:1015500001F036FA054695B90D4801F065FA0546E1
:101560006DB9192000F042F8102C07D20022214654
:10157000192000F04FF80748046000E001252846D4
:1015800007B0F0BD4438024040420F000000014067
:1015900038050020A802002008B500BF00200090F8
:1015A0001148006840F480400F4908600846006810
:1015B00000F48040009000BF00BF00BF00200090FA
:1015C000081F006840F08050091F08600846006846
:1015D00000F08050009000BF00BF00220F21901E3D
:1015E00000F018F808BD00004438024001460846E3
:1015F00000280DDB00BF00BF00F01F0301229A404E
:1016000043099B0003F1E023C3F8002100BF00BFA2
:1016100000BF70472DE9F05F80460D461646002753
:1016200003F0ACFA074639462A46334601F0070074
:10163000C0F1070ABAF1040F02D94FF0040A01E021
:10164000C0F1070AD14600F1040ABAF1070F02D22D
:101650004FF0000A01E0A0F1030AD4464FF0010A5E
:101660000AFA09FAAAF1010A0AEA020A0AFA0CFAC3
:101670004FF0010B0BFA0CFBABF1010B0BEA030B68
:101680004AEA0B042146404603F080FABDE8F09F89
:1016900000BF00F00702064B19684FF6FF03194020
:1016A000044B0B4343EA0221014B196000BF704712
:1016B0000CED00E00000FA05F8B504460025002610
:1016C000207800F0010020B9207800F00400042800
:1016D00031D1002060498866FFF7DEFE054606E04E
:1016E000FFF7DAFE401B022801D90320F8BD5B4852
:1016F0000068C0F3C0600028F2D1D4E9011041EACB
:101700008011207B41EA0070544984310860012037
:1017100051498866FFF7C0FE054606E0FFF7BCFEAC
:10172000401B022801D90320E0E74C480068C0F3C1
:10173000C0600028F2D0207800F0020002287DD19D
:1017400000BF0020009045484030006840F08050C5
:101750004249403108600846006800F0805000901F
:1017600000BF00BF3E48006840F480703C490860FC
:10177000FFF792FE054606E0FFF78EFE401B0228AB
:1017800001D90320B2E73648006800F480700028D1
:10179000F2D032487030006800F440764EB3208AB0
:1017A00000F44070B04224D02C487030006820F41F
:1017B000407601202B4908600020086027487030DF
:1017C0000660006800F0010098B1FFF765FE05466D
:1017D00008E0FFF761FE401B41F28831884201D9E1
:1017E000032083E71D4870300068C0F340000028E4
:1017F000EFD000BF208A00F44070B0F5407F0CD1DC
:1018000016480830006820F4F810174A2169114082
:10181000084312490831086007E0104808300068A2
:1018200020F4F8100D49083108600C487030006849
:10183000218AC1F30B010843084900E002E070313E
:10184000086000BF207800F00800082802D1207D41
:1018500006490860002049E700004742003802407E
:1018600000700040400E4742FFFCFF0FE01147426E
:1018700070B504460D460CB9012070BD584800688B
:1018800000F00700A84209D255490D7008460068CB
:1018900000F00700A84201D00120EEE7207800F018
:1018A000020002281DD1207800F00400042805D190
:1018B0004C48006840F4E0504A490860207800F045
:1018C0000800082805D14748006840F460404549B1
:1018D00008604448006820F0F000A16808434149CE
:1018E0000860207800F00100A8B36068012807D1E3
:1018F0003C4808380068C0F34040B8B90120BCE754
:101900006068022802D06068032807D1354808388B
:101910000068C0F3406048B90120AEE7314808389C
:101920000068C0F3400008B90120A6E72D48006810
:1019300020F00300616808432A490860FFF7ACFD06
:10194000064609E0FFF7A8FD801B41F28831884276
:1019500002D9032091E707E02248006800F00C005C
:101960006168B0EB810FEDD11D48006800F0070001
:10197000A84209D91A490D700846006800F007000E
:10198000A84201D0012078E7207800F00400042864
:1019900007D11448006820F4E050E1680843114979
:1019A0000860207800F00800082808D10D48006879
:1019B00020F46040216940EAC1000A49086000F053
:1019C00061F808490968C1F30311074A515CC8402E
:1019D0000649086006480068FFF78EFD00204CE7C6
:1019E000003C024008380240D4840308A0020020D2
:1019F000A80200200F2202600D4A126802F00302C2
:101A000042600B4A126802F0F0028260084A1268D3
:101A100002F4E052C260064A126802F46042D20840
:101A20000261044A126802F007020A60704700006F
:101A300008380240003C024001480068704700003E
:101A4000A002002000B5FFF7F7FF04490968C1F3C1
:101A50008221034A515CC84000BD000008380240A2
:101A6000E484030800B5FFF7E7FF04490968C1F300
:101A70004231034A515CC84000BD000008380240B2
:101A8000E48403082DE9F047002400250026A14640
:101A90002548006800F00C0020B1042805D0082873
:101AA0003AD105E0DFF8849039E0DFF8849036E041
:101AB0001D48001F006800F03F041B48001F00681D
:101AC00000F4800078B11A481749091F0968C1F36A
:101AD0008811A0FB01700146224600233846FEF71C
:101AE0004BFC05460EE011480F49091F0968C1F378
:101AF0008811A0FB01700146224600233846FEF7FC
:101B00003BFC05460848001F0068C0F30140401C2C
:101B10004600B5FBF6F902E0DFF8109000BF00BF09
:101B20004846BDE8F0870000083802400024F40071
:101B300040787D01F8B504460CB90120F8BD207845
:101B400000F00100002874D0F948006800F00C0093
:101B500004280DD0F648006800F00C00082813D1C6
:101B6000F348001F006800F48000B0F5800F0BD12F
:101B7000EF4808380068C0F34040002859D060683A
:101B8000002856D10120D9E700BF6068B0F5803F3A
:101B900008D1E7480838006840F48030E449083943
:101BA00008601EE06068B0F5A02F0DD1E04808384D
:101BB000006840F48020DE49083908600846006863
:101BC00040F4803008600CE0D9480838006820F400
:101BD0008030D749083908600846006820F4802022
:101BE000086000BF606890B1FFF756FC054606E04C
:101BF000FFF752FC401B642801D903209EE7CC4824
:101C000008380068C0F340400028F1D011E0FFF729
:101C100043FC054606E0FFF73FFC401B642801D962
:101C200003208BE7C24808380068C0F34040002812
:101C3000F1D1207800F0020002285FD1BC48006892
:101C400000F00C0058B1BA48006800F00C000828F9
:101C50001CD1B748001F006800F48000B0B9B44838
:101C600008380068C0F3400020B1E068012801D0C6
:101C7000012063E7AE480838006820F0F8002169C9
:101C800040EAC100AA490839086037E0E06800B3BB
:101C90000120A8490860FFF7FFFB054606E0FFF7B3
:101CA000FBFB401B022801D9032047E7A048083866
:101CB0000068C0F340000028F1D09D480838006853
:101CC00020F0F800216940EAC1009949083908600C
:101CD00014E0002097490860FFF7DEFB054606E0A8
:101CE000FFF7DAFB401B022801D9032026E79048C2
:101CF00008380068C0F340000028F1D1207800F0D7
:101D0000080008282CD16069A8B101208A49086020
:101D1000FFF7C2FB054606E0FFF7BEFB401B0228AB
:101D200001D903200AE782486C300068C0F3400004
:101D30000028F1D014E000207F490860FFF7ACFBD9
:101D4000054606E0FFF7A8FB401B022801D9032047
:101D5000F4E677486C300068C0F340000028F1D109
:101D6000207800F00400042870D100277048383033
:101D7000006800F0805090B900BF002000906C48CF
:101D80003830006840F080506949383108600846B2
:101D9000006800F08050009000BF00BF0127674836
:101DA000006800F48070B0B96448006840F4807046
:101DB00062490860FFF770FB054606E0FFF76CFB21
:101DC000401B022801D90320B8E65C48006800F4F3
:101DD00080700028F2D000BFA068012808D15448C4
:101DE0006830006840F001005149683108601DE02A
:101DF000A06805280DD14E486830006840F0040006
:101E00004B49683108600846006840F001000860EE
:101E10000CE047486830006820F001004449683110
:101E200008600846006820F00400086000BFA06851
:101E3000A8B1FFF731FB054609E0FFF72DFB401B7A
:101E400041F28831884202D9032077E626E03848FB
:101E500068300068C0F340000028EED013E0FFF7C0
:101E60001BFB054608E0FFF717FB401B41F28831DA
:101E7000884201D9032061E62D4868300068C0F32C
:101E800040000028EFD1012F07D1294838300068E1
:101E900020F0805026493831086000BFA069002832
:101EA00045D02348006800F00C0008285DD0A069E8
:101EB000022845D100201F490866FFF7EDFA0546C4
:101EC00006E0FFF7E9FA401B022801D9032035E6B6
:101ED000174808380068C0F340600028F1D1D4E901
:101EE00007010843616A40EA81110122A06AC2EB3E
:101EF000500041EA00412C20005D41EA00600C499D
:101F0000091F086001200B490866FFF7C5FA05465E
:101F100006E0FFF7C1FA401B022801D903200DE6B5
:101F2000034808380068C0F340600028F1D049E059
:101F30000838024000004742800E474200700040CF
:101F4000002021490866FFF7A7FA054606E0FFF7DB
:101F5000A3FA401B022801D90320EFE51B480068C3
:101F6000C0F340600028F2D12CE0A069012800D124
:101F7000E4E51648001D0668A069012820D006F493
:101F80008001E06981421BD106F03F01206A814255
:101F900016D147F6C0703040616AB0EB811F0FD197
:101FA00006F440310122A06AC2EB5000B1EB004FB1
:101FB00006D106F070612C20005DB1EB006F01D0FE
:101FC0000120BBE50020B9E500004742003802408F
:101FD00018B503464E48006840094FF47A74B0FBC8
:101FE000F4F06043009000BF187F012801D1022067
:101FF00018BD0120187700BF0220587700BFCA2003
:102000001C68606253201C68606200BF18688068AA
:1020100000F48060C0B100BF0098401E009000989E
:1020200060B900BFFF201C68606200BF03205877C2
:1020300000BF0020187700BF0320D9E71868C068E8
:10204000C0F380000028E7D11868806820F4806021
:102050001C68A0601868C06800F0800060F49060A0
:102060001C68E0602A48006840094FF47A74B0FBAD
:10207000F4F06043009000BF0098401E009000986C
:1020800060B900BFFF201C68606200BF0320587762
:1020900000BF0020187700BF0320A9E71868C068B8
:1020A000C0F380000028E7D01868806820F007009F
:1020B0001C68A0601868806810431C68A0601868DD
:1020C00041611448006840F48000124C20601148BF
:1020D0000830006840F480000E4C08342060186816
:1020E000806840F480401C68A0601868806840F4F4
:1020F00080601C68A06000BFFF201C68606200BF99
:102100000120587700BF0020187700BF00BF6FE79D
:10211000A0020020003C01407047000010B50446BA
:102120004FF480000A4908602068C068C0F380202E
:1021300050B12068C06800F0800060F490602168B1
:10214000C8602046FFF7E8FF0120607710BD00005F
:10215000143C014070B504460CB9012070BD607F8D
:1021600020B900202077204600F04EF8022060774A
:102170002068C068C0F3001000283CD100BFCA200E
:102180002168486253202168486200BF204601F060
:1021900078FF0546EDB9206880681A490840216833
:1021A000886021696068084361690843216889681B
:1021B0000843216888602168E06808612068016937
:1021C000208941EA004021680861204601F07EFF35
:1021D00005465DB92068006C20F480202168086401
:1021E0002068006CA16908432168086400BFFF20D3
:1021F0002168486200E000250DB90120607728467B
:10220000ACE70000BFFF8FFF10B586B00446182171
:102210006846FEF7EAF90D492068884214D1022089
:102220000090C00104906846FFF746FA08B1FEF737
:1022300083FC012006490860002205210320FFF7E6
:10224000E9F90320FFF7D2F906B010BD00280040DD
:102250003C0E47422DE9F04105460C4617464FF02B
:10226000000800BF287F012802D10220BDE8F081CC
:102270000120287700BF022068774FB9607800F00E
:102280001000102804D1607800F0EF000A30607070
:1022900087B9E07801F0E8FE0304607801F0E4FE1D
:1022A00043EA0023A07801F0DFFE0343207843EAED
:1022B000403809E0E0780004617840EA0120A17824
:1022C0000843217840EA413800BFCA2029684862A3
:1022D00053202968486200BF284601F0D2FE064616
:1022E00046B90B4808EA000029684860284601F012
:1022F000EDFE06460EB90120687700BFFF20296871
:10230000486200BF00BF0020287700BF3046ADE71D
:102310003FFFFF002DE9F04104460D4617464FF000
:10232000000800BF207F012802D10220BDE8F08113
:102330000120207700BF02206077CFB92068806835
:1023400000F0400000B102E00020E87000BF2878F3
:1023500001F08AFE0304687801F086FE43EA002358
:10236000A87801F081FE0343E87843EA805812E040
:102370002068806800F0400000B102E00020E870B2
:1023800000BF28780004697840EA0120A978084352
:10239000E97840EA815800BFCA202168486253208A
:1023A0002168486200BF204601F06BFE0646B6B9C0
:1023B000124808EA0000216808602068806820F45C
:1023C000802021688860D5E9030108432168896875
:1023D000084321688860204601F078FE06460EB961
:1023E0000120607700BFFF202168486200BF00BF66
:1023F0000020207700BF304698E700007F7F7F00F5
:1024000070B5044600250B482168C860FFF744F802
:10241000054607E0FFF740F8401BB0F57A7F01D989
:10242000032070BD2068C06800F020000028F1D0B3
:102430000020F6E75F3F0100704710B504460CB975
:10244000012010BD606A38B96068B0F5827F00D1A4
:1024500005E00021E16102E00021216161610021CC
:10246000A16294F8510028B9002084F85000204659
:1024700000F048F8022084F851002068006820F03D
:10248000400021680860A08800F48270218901F46E
:1024900004410843A18901F400610843217C01F053
:1024A00002010843217D01F001010843218B01F461
:1024B00000710843217F01F0380108432021095DA4
:1024C00001F080010843218D01F400510843216887
:1024D00008600421A06901EA104094F8241001F07A
:1024E00010010843216848602068C06920F400603A
:1024F0002168C86100206065012084F85100002037
:102500009FE7000010B586B00446142101A8FEF72D
:102510006CF82B49206888424FD100BF0020009002
:102520002848006840F48050264908600846006842
:1025300000F48050009000BF00BF00BF002000905A
:1025400020481438006840F002001E491439086021
:102550000846006800F00200009000BF00BF28207D
:102560000190022002900020039003200490052097
:10257000059001A91448FEF79DFE1448144908600F
:102580004FF0806048604021114881600021C160A7
:102590004FF480610161490041618900816100213E
:1025A000C16101624162FEF7C5FD08B1FEF7C4FAE0
:1025B00000BF0748A064846300BF06B010BD0000E0
:1025C00000300140443802400004024040640240B0
:1025D000880300202DE9F84304460F4616461D46A1
:1025E000FEF75AFF8046B14694F85100012802D008
:1025F0000220BDE8F88307B10EB90120F9E700BF5A
:1026000094F85000012801D10220F2E7012084F85B
:10261000500000BF032084F851000020606527634C
:10262000A686E686A063A087E08760642064A06831
:10263000B0F5004F0BD12068006820F04000216801
:1026400008602068006840F48040216808602068C5
:10265000006800F04000402805D02068006840F085
:10266000400021680860E068B0F5006F37D160680D
:1026700010B1B9F1010F09D1206B00882168C86041
:10268000206B801C2063E08E401EE08623E02068E3
:10269000806800F0020002280AD1206B00882168BF
:1026A000C860206B801C2063E08E401EE08612E034
:1026B000FEF7F2FEA0EB0800A84201D3681C00B9A7
:1026C0004DB9012084F8510000BF002084F850006B
:1026D00000BF03208DE7E08E0028D8D136E0606887
:1026E00010B1B9F1010F09D1206B0078216808738E
:1026F000206B401C2063E08E401EE08623E02068B3
:10270000806800F0020002280AD1206B007821685E
:102710000873206B401C2063E08E401EE08612E0B0
:10272000FEF7BAFEA0EB0800A84201D3681C00B96E
:102730004DB9012084F8510000BF002084F85000FA
:1027400000BF032055E7E08E0028D8D14246294635
:10275000204601F085FD08B120206065A06850B9D1
:1027600000BF002000902068C0680090206880684A
:10277000009000BF00BF012084F8510000BF00207E
:1027800084F8500000BF606D08B1012031E70020DF
:102790002FE700002DE9F04104460E46154694F857
:1027A0005100012802D00220BDE8F08106B10DB928
:1027B0000120F9E700BF94F85000012801D1022060
:1027C000F2E7012084F8500000BF032084F8510094
:1027D000002060652663A586E586A06360642064AA
:1027E000A087E087A068B0F5004F0BD12068006893
:1027F00020F04000216808602068006840F48040B4
:10280000216808601F48A16C08641F48A16CC86358
:102810001E48A16CC8640020A16C0865E38E27687F
:1028200007F10C02216BA06CFEF7FAFC50B1606D51
:1028300040F01000606500BF002084F8500000BF29
:102840000120B1E72068006800F04000402805D072
:102850002068006840F040002168086000BF002048
:1028600084F8500000BF2068406840F020002168D4
:1028700048602068406840F00200216848600020FD
:1028800092E70000D3410008E1410008AB41000895
:1028900010B504460849206888420CD100BF206862
:1028A000806800F080000028F9D10448006810B169
:1028B00002480068804710BD00300140B00200208F
:1028C0007047042808D14FF0E021096941F0040164
:1028D0004FF0E022116107E04FF0E021096921F09B
:1028E00004014FF0E0221161704770B5044625469F
:1028F000681EB0F1807F01D301200FE0681E4FF009
:10290000E02148610F214FF0FF3002F03FF9002035
:102910004FF0E021886107200861002070BD7047FA
:102920007047000030B502460B4600BF92F83C00ED
:10293000012801D1022030BD012082F83C0000BFF7
:10294000022082F83D00106844681068816824F015
:1029500070041868044310684460144D1068A8425D
:1029600013D01068B0F1804F0FD0114D1068A842FD
:102970000BD0104D1068A84207D00F4D1068A84228
:1029800003D00E4D1068A84205D121F0800158688F
:10299000014310688160012082F83D0000BF0020E3
:1029A00082F83C0000BF00BFC5E700000000014006
:1029B0000004004000080040000C004000400140BE
:1029C00010B504460CB9012010BD94F83D0028B99B
:1029D000002084F83C00204600F025F8022084F80E
:1029E0003D00211D206801F06BFD012084F84600A8
:1029F00000BF84F83E0001213F20015540200155D1
:102A00004120015500BF00BF012084F8420043204F
:102A10000155442001554520015500BF012084F88F
:102A20003D000020D0E77047014691F83D000128A5
:102A300001D001207047022081F83D000868C0687D
:102A400040F001000B68D860164B0868984213D01C
:102A50000868B0F1804F0FD0134B086898420BD034
:102A6000124B0868984207D0114B0868984203D06F
:102A7000104B086898420CD10868806800F0070283
:102A8000062A0CD00868006840F001000B68186046
:102A900005E00868006840F001000B68186000203D
:102AA000C8E70000000001400004004000080040AA
:102AB000000C004000400140704770B5044620689B
:102AC000C5682068066906F00200022819D105F0E1
:102AD0000200022815D1401F2168086101202077DB
:102AE0002068806900F0030018B12046FFF7E4FF7A
:102AF00005E0204600F0C8F8204600F095F90020D7
:102B0000207706F00400042819D105F004000428F9
:102B100015D1C043216808610220207720688069B0
:102B200000F4407018B12046FFF7C6FF05E02046CC
:102B300000F0AAF8204600F077F90020207706F090
:102B40000800082819D105F00800082815D1C0434D
:102B500021680861042020772068C06900F0030024
:102B600018B12046FFF7A8FF05E0204600F08CF8DA
:102B7000204600F059F90020207706F010001028B8
:102B800019D105F01000102815D1C0432168086143
:102B9000082020772068C06900F4407018B12046F2
:102BA000FFF78AFF05E0204600F06EF8204600F0AF
:102BB0003BF90020207706F0010048B105F0010044
:102BC00030B16FF0010021680861204600F0A4F9DF
:102BD00006F08000802809D105F08000802805D10A
:102BE000C043216808612046FFF799FE06F04000C7
:102BF000402809D105F04000402805D1C043216894
:102C00000861204600F094F906F02000202809D140
:102C100005F02000202805D1C04321680861204626
:102C2000FFF77EFE70BD000010B586B0044614218B
:102C300001A8FDF7DAFC1149206888421CD100BFC9
:102C4000002000900E48006840F002000C49086027
:102C50000846006800F00200009000BF00BF01209D
:102C60000190022002900020039004900220059021
:102C700001A90448FEF71EFB06B010BD0004004089
:102C8000303802400004024070472DE9F04104460C
:102C90000D461646002700BF94F83C00012802D1DB
:102CA0000220BDE8F081012084F83C0000BF36B16D
:102CB000042E1BD0082E31D00C2E5ED145E02946C3
:102CC000206801F065FC2068806940F008002168F8
:102CD00088612068806920F004002168886120688C
:102CE0008069296908432168886148E0294620688D
:102CF00001F07EFC2068806940F4006021688861F2
:102D00002068806920F4806021688861206880697B
:102D1000296940EA01202168886130E0294620685D
:102D200001F09AFC2068C06940F008002168C86181
:102D30002068C06920F004002168C8612068C0696B
:102D4000296908432168C86119E02946206801F013
:102D5000B7FC2068C06940F400602168C861206841
:102D6000C06920F480602168C8612068C069296951
:102D700040EA01202168C86101E0012700BF00BFCF
:102D800000BF002084F83C0000BF384689E710B53A
:102D900004460CB9012010BD94F83D0028B900206C
:102DA00084F83C00204600F025F8022084F83D001D
:102DB000211D206801F084FB012084F8460000BF3B
:102DC00084F83E0001213F2001554020015541205B
:102DD000015500BF00BF012084F842004320015587
:102DE000442001554520015500BF012084F83D00D5
:102DF0000020D0E708B50A4A016891420FD100BF10
:102E0000002100910749096841F00201054A11605B
:102E10001146096801F00201009100BF00BF08BD22
:102E200000040040403802407047000070B504467E
:102E30000D4615B994F83E000BE0042D02D13F2059
:102E4000005D06E0082D02D14020005D01E0412038
:102E5000005D012801D0012070BD1DB9022084F859
:102E60003E000EE0042D03D102213F20015508E071
:102E7000082D03D102214020015502E0022141200A
:102E8000015501222946206801F070FB1D49206888
:102E9000884201D1012000E0002028B12068406C68
:102EA00040F400402168486416492068884213D0E5
:102EB0002068B0F1804F0FD01349206888420BD0B2
:102EC00012492068884207D011492068884203D0FF
:102ED0001049206888420CD12068806800F00706FD
:102EE000062E0CD02068006840F0010021680860C0
:102EF00005E02068006840F00100216808600020BB
:102F0000AAE7000000000140000400400008004063
:102F1000000C00400040014010B504460349206801
:102F2000884201D1FEF7BEFA10BD0000000001404A
:102F300070477047704700002DE9F84F044620683D
:102F400005682068C668206847694FF00009CA46CE
:102F500005F00F09B9F1000F0AD105F0200038B1D2
:102F600006F0200020B1204601F01DFCBDE8F88FDE
:102F7000B9F1000F7CD007F0010018B906F4907089
:102F8000002875D005F0010030B106F4807018B14A
:102F9000606C40F00100606405F0040030B107F09F
:102FA000010018B1606C40F00200606405F002009E
:102FB00030B107F0010018B1606C40F004006064AB
:102FC00005F0080048B106F0200010B907F0010034
:102FD00018B1606C40F008006064606C002846D056
:102FE00005F0200028B106F0200010B1204601F0C5
:102FF000DAFB20684069C0F3801A606C00F00800BA
:1030000010B9BAF1000F2DD0204601F086FB2068E0
:10301000406900F04000402820D100BF00BF216877
:10302000143151E8001F21F040002168143141E8BB
:103030000002002AF3D100BFE06B50B17F48E16B82
:103040000865E06BFDF742FF88B1E06B016D8847D2
:103050000DE02046FFF76EFF09E009E02046FFF78C
:1030600069FF04E02046FFF765FF002060647DE70C
:10307000206B012878D105F01000002874D006F0EC
:1030800010000028FAD000BF0020009020680068DF
:10309000009020684068009000BF00BF2068406931
:1030A00000F04000402870D1E06B006840681FFAD3
:1030B00080F8B8F1000F58D0A08D404555DDA4F838
:1030C0002E80E06BC069B0F5807F43D000BF00BFA9
:1030D00021680C3151E8001F21F4807021680C3107
:1030E00041E80002002AF3D100BF00BF00BF216801
:1030F000143151E8001F21F001002168143141E82A
:103100000002002AF3D100BF00BF00BF21681431C4
:1031100051E8001F21F040002168143141E800020D
:10312000002AF3D100BF202084F842000020206351
:1031300000BF00BF21680C3151E8001F21F01000D2
:1031400021680C3141E80002002AF3D100BFE06B96
:10315000FDF766FE02206063A08DE28D801A81B2C9
:103160002046FFF7E6FE0EE052E0A08D40450AD172
:10317000E06BC069B0F5807F05D102206063A18D4E
:103180002046FFF7D6FEF1E6FFE7A08DE18D401A5D
:103190001FFA80F8E08DD0B3B8F1000F37D000BF30
:1031A00000BF21680C3151E8001F21F490702168A4
:1031B0000C3141E80002002AF3D100BF00BF00BF7C
:1031C0002168143151E8001F21F0010021681431F9
:1031D00041E80002002AF3D100BF202084F8420019
:1031E0000020206300BF00BF21680C3151E8001FA0
:1031F00021F0100021680C3141E80002002AF3D1CF
:1032000000BF0220606341462046FFF792FEADE614
:1032100005F0800030B106F0800018B1204601F0C2
:1032200057FCA3E605F0400030B106F0400018B1AD
:10323000204601F0A8FA99E600BF97E60947000882
:1032400010B504460CB9012010BDA06900B100E022
:1032500000BF94F8410028B9002084F840002046BF
:1032600000F02AF8242084F841002068C06820F487
:1032700000502168C860204601F014FB20680069F6
:1032800020F49040216808612068406920F02A00FD
:10329000216848612068C06840F400502168C86017
:1032A00000206064202084F8410084F8420000205F
:1032B000606300BFC8E7000010B586B00446142163
:1032C00001A8FDF792F93D492068884274D100BFFA
:1032D000002000903A48006840F01000384908602B
:1032E0000846006800F01000009000BF00BF00BF5B
:1032F0000020009032481438006840F00100304946
:10330000143908600846006800F00100009000BF12
:1033100000BF4FF4C0600190022002900020039093
:10332000032004900720059001A92648FDF7C2FF5D
:103330002548264908604FF0006048600021234876
:103340008160C1604FF48061016100214161816150
:10335000C16101624162FDF7EDFE08B1FDF7ECFBD2
:1033600000BF1A48E063846300BF17483030184933
:1033700008604FF0006048604021154881600021DE
:10338000C1604FF480610161002141618161C161CF
:1033900001624162FDF7CEFE08B1FDF7CDFB00BF33
:1033A0000B48A063846300BF002205212520FEF79F
:1033B00031F92520FEF71AF906B010BD00100140C2
:1033C0004438024000000240886402407804002033
:1033D000D80400207047704700BFFEE70EB54DE0EF
:1033E0002FF07CFF08212648FFF720FD06F094FA15
:1033F00000F0AAFA00204FF48C73F02201460090EE
:1034000000F04CFA0A2006F09DFA00F071FB502003
:1034100000F07CFB00201821CDE900014FF6FF737E
:1034200018A2782102903C2000F02CFC00201021F2
:10343000CDE900014FF6FF7314A2A02102902220D3
:1034400000F020FC4FF47A7006F07CFA0020BD23D7
:10345000F0227421009000F021FA1CF0B9FF24F052
:10346000B5FE24F0D9FE2FF09BFA30F023FE0020A9
:103470002FF026FE4FF4FA7029F0A7FEB0E7000007
:10348000E80300204C4344204F4B21004F562D575A
:10349000617463682056322E342E340010B586B025
:1034A0000446142101A8FDF7A0F82089019001200D
:1034B000029003900220049001A92068FDF7FAFE13
:1034C0006089019001A96068FDF7F4FE06B010BDA7
:1034D00070B5054608260024284600F02FFE13E0AC
:1034E0006006040E0021284600F010FE022006F0BF
:1034F00035FA0121284600F009FE012006F02EFAD7
:10350000284600F010FE0443301EA6F10101CEB2A1
:10351000E6D10021284600F0F9FD284600F030FEF3
:10352000204670BD10B504460021204600F01BFE69
:10353000012006F013FA0121204600F0E7FD0120EA
:1035400006F00CFA0021204600F0E0FD012006F014
:1035500005FA10BD70B505460C4608261AE0002194
:10356000284600F0D3FD022006F0F8F904F08001AF
:10357000284600F0F8FD012006F0F0F96006040E80
:10358000012006F0EBF90121284600F0BFFD0120E3
:1035900006F0E4F9301EA6F10101CEB2DFD1002120
:1035A000284600F0B3FD022006F0D8F970BD10B532
:1035B00004460121204600F0D6FD012006F0CEF998
:1035C0000121204600F0A2FD012006F0C7F90021EC
:1035D000204600F09BFD022006F0C0F910BD10B59A
:1035E00004460121204600F0BEFD022006F0B6F997
:1035F0000121204600F08AFD012006F0AFF90021EC
:10360000204600F0B0FD012006F0A8F90021204678
:1036100000F07CFD012006F0A1F910BD10B50446B4
:103620000021204600F072FD022006F097F90021EB
:10363000204600F098FD012006F090F90121204677
:1036400000F064FD012006F089F90121204600F018
:103650008AFD012006F082F910BD70B505460524EB
:10366000284600F06BFD0121284600F04FFD0DE0DB
:10367000601E84B2012006F071F93CB9284600F0C2
:103680007FFD2846FFF7CAFF012070BD284600F0E5
:103690004AFD0028ECD1284600F072FD00212846A2
:1036A00000F034FD022006F059F90020EDE72DE985
:1036B000F04780460D4617461E46DDF820904046EE
:1036C000FFF78DFF6806010E4046FFF743FF4046B7
:1036D000FFF7C3FF28B14046FFF7A0FF0120BDE878
:1036E000F08739464046FFF735FF4046FFF7B5FF04
:1036F0004046FFF774FF012000EB4500C1B2404691
:10370000FFF728FF4046FFF7A8FF00240CE04046E3
:10371000FFF7DEFE09F80400701EA04202DD4046FD
:10372000FFF700FF601CC4B2B442F0DB4046FFF775
:103730003EFF4046FFF772FF0020D0E72DE9F04141
:1037400006460C4615463046FFF749FF6006010E57
:103750003046FFF7FFFE3046FFF77FFF2946304631
:10376000FFF7F8FE3046FFF778FF3046FFF737FFE8
:10377000012000EB4400C1B23046FFF7EBFE3046BB
:10378000FFF76BFF3046FFF7A3FE07463046FFF713
:103790000EFF3046FFF742FF3846BDE8F0812DE9C5
:1037A000F04107460C4615461E463846FFF717FF00
:1037B0006006010E3846FFF7CDFE3846FFF74DFF95
:1037C00028B13846FFF72AFF0120BDE8F0812946DD
:1037D0003846FFF7BFFE3846FFF73FFF3146384611
:1037E000FFF7B8FE3846FFF738FF3846FFF716FFF9
:1037F000012006F0B3F80020E7E72DE9F041074685
:103800000C4615461E462A2000F076FA384600F08F
:103810005BFA284600F058FA2B2000F06DFA20469B
:1038200000F052FA304600F04FFA2C2000F064FA13
:10383000BDE8F0812DE9F05F06460C4617461D46AF
:10384000B81B401C1FFA80F8281B401C1FFA80F987
:1038500008FB09FA4FEA4A0B05F1140083B204F1A0
:10386000140081B23A463046FFF7C7FF1FFA8BF2C9
:1038700002480A99FEF78EFFBDE8F09F3003002052
:1038800070B504460D4616462B462246294620466C
:10389000FFF7B3FF304600F017FA70BD2DE9F0478F
:1038A00007460C4615461E46DDF820A006F113001B
:1038B00083B2681E82B204F1140081B23846FFF769
:1038C0009CFFA0460EE0B94606E0504600F0FCF929
:1038D00009F101001FFA80F9A945F6DB08F10100A2
:1038E0001FFA80F8B045EEDBBDE8F08700B587B081
:1038F000142102A8FCF779FE00BF002001901048B7
:10390000006840F002000E4908600846006800F0B8
:103910000200019000BF00BF4FF4607002900120D0
:1039200003900320059002A90648FDF7C3FC01227D
:103930004FF460710348FDF7A9FD07B000BD00001A
:10394000303802400004024010B5FFF7CFFF0022DC
:103950004FF480716548FDF799FD0022802163488E
:10396000FDF794FD642005F0EDFF012280215F4802
:10397000FDF78CFD642005F0E5FF112000F0BCF997
:10398000782005F0DFFF362000F0B6F9002000F0C7
:10399000ADF93A2000F0B0F9052000F0A7F9B22007
:1039A00000F0AAF90C2000F0A1F90C2000F09EF91B
:1039B000002000F09BF9332000F098F9332000F04C
:1039C00095F9B72000F098F9352000F08FF9BB2069
:1039D00000F092F9192000F089F9C02000F08CF96C
:1039E0002C2000F083F9C22000F086F9012000F0BD
:1039F0007DF9C32000F080F9122000F077F9C4208F
:103A000000F07AF9202000F071F9C62000F074F976
:103A10000F2000F06BF9D02000F06EF9A42000F028
:103A200065F9A12000F062F9E02000F065F9D020EE
:103A300000F05CF9042000F059F90D2000F056F96F
:103A4000112000F053F9132000F050F92B2000F062
:103A50004DF93F2000F04AF9542000F047F94C207E
:103A600000F044F9182000F041F90D2000F03EF973
:103A70000B2000F03BF91F2000F038F9232000F064
:103A800035F9E12000F038F9D02000F02FF90420BA
:103A900000F02CF90C2000F029F9112000F026F993
:103AA000132000F023F92C2000F020F93F2000F033
:103AB0001DF9442000F01AF9512000F017F92F20C9
:103AC00000F014F91F2000F011F91F2000F00EF98A
:103AD000202000F00BF9232000F008F9212000F04D
:103AE0000BF9292000F008F910BD00000004024085
:103AF00010B508210148FFF799F910BDE80300202F
:103B00000149086070470000B002002005280ADB68
:103B1000642808DC4FF496714143642291FBF2F172
:103B2000014A1268D1637047E80300202DE9FF5F66
:103B300080468A4617469B460F9D00200290CDF88E
:103B40000080284605EBD071C1F347042046E217F8
:103B500004EB5272D2102146E31704EB5373DB10CF
:103B6000A4EBC3030BB1012300E000231A446A4312
:103B700092B20192A7F12000C7B20AEB0500401EE5
:103B800083B208EB0400401E82B251464046FFF764
:103B900034FE002669E00C2D07D107EB47003549BC
:103BA00001EB8000805D03901BE0102D05D13248B1
:103BB00000EB0710805D039013E0182D07D107EB91
:103BC00047002E4901EB0010805D039009E0202D95
:103BD00005D12B4800EB8710805D039001E0BDE824
:103BE000FF9F4FF000093AE01098C8B9012000FA91
:103BF00009F00399084018B1584600F065F802E052
:103C00000E9800F061F80298401CC0B20290029831
:103C100090FBF4F104FB1100E8B90020029021E0D0
:103C2000012000FA09F00399084020B15A46514694
:103C30004046FFF725FE08F101001FFA80F80098C2
:103C4000A8EB0000A04206D1DDF800800AF10100D7
:103C50001FFA80FA06E009F1010000F0FF09B9F14E
:103C6000080FC1DB00BF701C86B20198864292DB50
:103C700000BFB4E7F484030868890308588F030879
:103C800028A103082DE9FE4F06460F461446984624
:103C9000DDE90D5ADDF8309010E0CDE9015ACDF89C
:103CA00000902278434639463046FFF73FFF2846CA
:103CB00005EBD07106EB61018EB2641C2078002800
:103CC000EBD1BDE8FE8F000038B50446200A8DF820
:103CD0000000E0B28DF8010001230222694602488B
:103CE000FEF778FC38BD00003003002010B5044614
:103CF000204600F015F810BD10B5044600224FF420
:103D000000710648FDF7C2FB204600F009F80122C9
:103D100051020248FDF7BAFB10BD0000000402404A
:103D200001B501231A4669460148FEF753FC08BD58
:103D3000300300200CE000BF27F0DAFE044604B98F
:103D400001241E2C00D91E24204629F03EFA00BF73
:103D5000F1E700001FB50020009001900290039051
:103D60001548164908604FF4803048600021134818
:103D700081600161017680F82010C1621049816282
:103D80000021C1600121C161002180F830100121B2
:103D90004161FCF7A7FF08B1FCF7CEFE01200090BF
:103DA00001900020029069460448FCF7C9FE08B162
:103DB000FCF7C2FE1FBD000000200140C802002029
:103DC0000100000F10B50548054908600846FCF7DA
:103DD000FDFF08B1FCF7B0FE10BD0000003002404E
:103DE0000400002008B500BF0020009012480068C1
:103DF00040F48000104908600846006800F4800024
:103E0000009000BF00BF002205213A20FDF702FC10
:103E10003A20FDF7EBFB002211464420FDF7FAFBA8
:103E20004420FDF7E3FB002205214620FDF7F2FBCD
:103E30004620FDF7DBFB08BD3038024010B5054ACF
:103E40000021054829F016FA0449086000F07AFEBE
:103E500010BD000008430308C14300080000002013
:103E600008B500BF002000901548006840F004002D
:103E7000134908600846006800F00400009000BF85
:103E800000BF00BF002000900846006840F001001D
:103E900008600846006800F00100009000BF00BF05
:103EA00000BF002000900846006840F00200086053
:103EB0000846006800F00200009000BF00BF08BD87
:103EC0003038024000B587B0142102A8FCF78DFB02
:103ED00000200190224823490860002048607F218B
:103EE00020488160FF21C160002101614161816141
:103EF000FEF730F908B1FCF71FFE11208DF808001D
:103F000059208DF809008DF80A00002005900690D0
:103F1000012202A91348FEF7FDF908B1FCF70CFED7
:103F200007208DF8040006208DF8050007208DF885
:103F3000060026208DF80700012201A90948FEF796
:103F400089F908B1FCF7F8FD00224FF4FA61054841
:103F5000FEF73EF808B1FCF7EFFD07B000BD00002A
:103F6000002800401003002010B50E480E490860DC
:103F70004FF48270486000210B488160C1600221CB
:103F8000016101214161490281610021C161016238
:103F9000416281620A21C162FEF74FFA08B1FCF763
:103FA000CBFD10BD003001403003002000B589B0CA
:103FB0000020079008901C216846FCF716FB184863
:103FC00018490860632048600021164881604FF45A
:103FD0009671C160002101618161FEF7D8FE08B1D0
:103FE000FCF7AAFD00200790089007A90D48FEF7EE
:103FF00099FC08B1FCF7A0FD602000900020019022
:1040000002900490082269460648FEF73EFE08B179
:10401000FCF792FD0348FEF707FE09B000BD000063
:1040200000040040E803002010B50B480B4908606D
:104030004FF4E1304860002108488160C1600161AF
:104040000C21416100218161C161FFF7F9F808B1DC
:10405000FCF772FD10BD000000100140300400208C
:1040600000BFFEE700BFFEE70146002203E0521C4E
:10407000A1F10A00C1B20A29F9D2100741EA106081
:10408000704770B50446002600252068C06800F01F
:104090004000C8B92068C06840F080002168C8604E
:1040A000FDF7FAF9064608E0FDF7F6F9801BB0F5D2
:1040B0007A7F02D90420607701252068C06800F06B
:1040C000400008B9012DEFD1284670BD70B50446F7
:1040D00000252068C06820F080002168C860206842
:1040E000806800F0200030B92046FEF789F910B151
:1040F000042060770125284670BD000010B50248F5
:10410000FEF70CF810BD00001003002031B142682A
:10411000926943891A4343689A6103E04289120411
:1041200043689A61704710B5044621892068FDF7FD
:10413000A5F9012800D110BD0020FCE710B586B01C
:104140000446142101A8FCF750FA208901900020B0
:104150000290012003900220049001A92068FDF73D
:10416000A9F806B010BD31B10268926903891A43FB
:1041700003689A6103E00289120403689A61704738
:1041800010B586B00446142101A8FCF72EFA208948
:10419000019011200290002003900220049001A9B8
:1041A0002068FDF787F806B010BD70B50546AC6B0A
:1041B0002068406820F0030021684860606D40F08E
:1041C00010006065012084F851002046FEF734F9A4
:1041D00070BD70B50446A56B2846FEF771FB70BD37
:1041E000F8B50546AC6BFDF757F906462868006838
:1041F00000F48070B0F5807F2DD02068406820F0FA
:104200002000216848602068406820F00200216892
:10421000486032466421204600F022F818B1606DF3
:1042200040F020006065A06850B900BF00200090F9
:104230002068C068009020688068009000BF00BFC0
:104240000020E086012084F85100606D18B12046FE
:10425000FEF7F2F8F8BD2046FEF71AFB00BFF9E7BB
:104260007CB504460E4615463346012202212046FF
:10427000009500F039F828B1606D40F020006065CD
:1042800003207CBD164800681821B0FBF1F01549E9
:10429000B0FBF1F04FF47A71484301906068B0F5DB
:1042A000827F0DD13346002280212046009500F008
:1042B0001BF898B1606D40F0200060650320E0E7D6
:1042C00000BF019800B908E00198401E01902068E5
:1042D0008068C0F3C0100028F3D100BF0020D0E7F1
:1042E000A002002040420F002DE9F84F04460D4681
:1042F00090461E46DDF82890FDF7CEF8A0EB0900A9
:10430000371AFDF7C9F882462C480068C0F3CB3055
:104310007843009046E0701C002843D0FDF7BCF8BD
:10432000A0EB0A00B84200D2A7BB2068406820F08A
:10433000E000216848606068B0F5827F0DD1A06818
:10434000B0F5004F03D0A068B0F5806F05D12068AC
:10435000006820F0400021680860A06AB0F5005FA6
:104360000DD100BF2068006820F40050216808606B
:104370002068006840F400502168086000BF0120F8
:1043800084F8510000BF002084F8500000BF0320D3
:10439000BDE8F88FFFE7009808B9002702E0009811
:1043A000401E0090206880682840A84201D101206A
:1043B00000E000204045AED10020E9E7A002002047
:1043C00000BF4FF47A7028F000FFFAE710B54FF005
:1043D000E02000692FF010FD012801D02FF05AF9DC
:1043E00010BD000000B593B0302107A8FCF7FDF820
:1043F000142102A8FCF7F9F800BF0020019025481D
:10440000006840F08050234908600846006800F0CA
:104410008050019000BF00BF00BF002001901E48E7
:10442000006840F440401C4908600846006800F4F9
:104430004040019000BF00BF062007900120099076
:104440000A9010200B9002200D9000210E9108215F
:104450000F9164211091022111910421129107A85A
:10446000FDF768FB08B1FCF767FB0F200290022004
:104470000390002004904FF4805005900020069097
:10448000032102A8FDF7F4F908B1FCF755FB13B0BE
:1044900000BD000040380240007000400348006842
:1044A00040F47000014908607047000088ED00E0AA
:1044B00010B50248FEF701FB10BD000038050020D2
:1044C00010B50268224B98420BD0B0F1804F08D053
:1044D000204B984205D0204B984202D01F4B984267
:1044E00003D122F070024B681A43194B984214D042
:1044F000B0F1804F11D0174B98420ED0164B984216
:104500000BD0164B984208D0154B984205D0154B4E
:10451000984202D0144B984203D122F44072CB68E7
:104520001A4322F080034C6943EA04028B68C36299
:104530000B688362064B984201D10B6903630368E1
:1045400043F00403036001234361026010BD0000D7
:10455000000001400004004000080040000C004042
:1045600000400140004401400048014030B501F0E6
:104570001F05012404FA05F3046A9C430462046ADB
:1045800001F01F0502FA05F52C43046230BD00005E
:1045900030B5026A056A25F0010505624368846941
:1045A00024F0700424F003040D682C4322F002026E
:1045B0008D682A430D4DA84206D100BF22F00802A3
:1045C000CD682A4322F00402084DA84207D123F403
:1045D000807323F400734D692B438D692B43436033
:1045E00084614D684563026230BD000000000140F7
:1045F00030B5026A056A25F01005056243688469D2
:1046000024F4E04424F440740D6844EA052422F0C4
:1046100020028D6842EA05120E4DA84207D100BF64
:1046200022F08002CD6842EA051222F04002094DD4
:10463000A84209D123F4806323F400634D6943EA5F
:1046400085038D6943EA8503436084614D68856312
:10465000026230BD0000014030B5026A056A25F4EF
:10466000807505624368C46924F0700424F0030473
:104670000D682C4322F400728D6842EA05220F4D2A
:10468000A84207D100BF22F40062CD6842EA0522A9
:1046900022F48062094DA84209D123F4805323F407
:1046A00000534D6943EA05138D6943EA05134360DE
:1046B000C4614D68C563026230BD00000000014066
:1046C00030B5036A056A25F4805505624468C269FD
:1046D00022F4E04222F440720D6842EA052223F4FB
:1046E00000538D6843EA0533064DA84204D124F4F3
:1046F00080444D6944EA85144460C2614D68056494
:10470000036230BD0000014070B50446A56B002077
:10471000E8852846FEF70EFC70BD00BF00BF0268AA
:104720000C3252E8002F22F4907102680C3242E8F9
:104730000013002BF3D100BF00BF00BF026814328A
:1047400052E8002F22F001010268143242E80013FF
:10475000002BF3D100BF016B01290ED100BF00BFB8
:1047600002680C3252E8002F22F0100102680C326D
:1047700042E80013002BF3D100BF202180F8421043
:1047800000210163704710B504462068C06820F01E
:1047900040002168C860202084F841002046FEF7D0
:1047A0001AFE002010BDF8B504460025002694F836
:1047B0004200222873D1A068B0F5805F0BD1206938
:1047C00048B9A66A20684068C0F308003080A06A33
:1047D000801CA06214E0A56AA068B0F5805F03D0D9
:1047E000A06828B9206918B920684068287004E0DA
:1047F0002068406800F07F002870A06A401CA0621A
:10480000E08D401E80B2E085002846D12068C06857
:1048100020F020002168C8602068C06820F4807003
:104820002168C8602068406920F001002168486163
:10483000202084F8420000206063206B012826D1EC
:104840000020206300BF00BF21680C3151E8001F29
:1048500021F0100021680C3141E80002002AF3D158
:1048600000BF2068006800F0100010280AD100BFC7
:104870000020009020680068009020684068009048
:1048800000BF00BFA18D2046FEF753FB02E020468B
:10489000FEF7A0FD0020F8BD01E00020FBE70220AC
:1048A000F9E700002DE9F84F04462068006920F47C
:1048B0004050E1680843216808612169A068084305
:1048C00061690843E169084300902068C06849F2C3
:1048D0000C618843009908432168C86020684069DA
:1048E00020F44070A1690843216848617649206836
:1048F000884203D075492068884203D1FDF7B2F899
:10490000814602E0FDF79EF88146E069B0F5004F70
:104910006CD102206168A0FB015003461920A9FB5D
:10492000007001462A463846FBF726FD6421B0FB9D
:10493000F1F04FEA001A02206168A0FB01510B461A
:104940001920A9FB00712A463846FBF715FD83465E
:1049500002206168A0FB015003461920A9FB0071E9
:104960002A463846FBF708FD6421B0FBF1F000EB66
:10497000C00101EB0010ABEB8000322101EBC00065
:104980006421B0FBF1F000F0F8000AEB400A0220CD
:104990006168A0FB015003461920A9FB0070014685
:1049A0002A463846FBF7E8FC834602206168A0FBF4
:1049B000015003461920A9FB00712A463846FBF72F
:1049C000DBFC6421B0FBF1F000EBC00101EB001057
:1049D000ABEB8000322101EBC0006421B0FBF1F0B1
:1049E00000F007005044216888606AE00420616894
:1049F000A0FB015003461920A9FB007001462A467E
:104A00003846FBF7B9FC824604206168A0FB0150E0
:104A100003461920A9FB007001462A463846FBF7D9
:104A2000ABFC6421B0FBF1F000EBC00101EB001026
:104A3000AAEB8000322101EB00106421B0FBF1F001
:104A400000F0F00A04206168A0FB01700346192001
:104A5000A9FB00513A462846FBF78EFC6421B0FBC7
:104A6000F1F00AEB001A04206168A0FB01510B462B
:104A70001920A9FB00712A463846FBF77DFC8346C6
:104A800004206168A0FB015003461920A9FB0070B7
:104A900001462A463846FBF76FFC6421B0FBF1F073
:104AA00000EBC00101EB0010ABEB8000322101EB09
:104AB00000106421B0FBF1F000F00F0050442168B9
:104AC0008860BDE8F88F000000100140001401402C
:104AD000014691F84100212828D18868B0F5805F0F
:104AE0000BD1086948B90A6A1088C0F308000B683E
:104AF0005860086A801C086205E00B6A581C08624E
:104B000018780B685860C88C401E80B2C88458B9A9
:104B10000868C06820F080000B68D8600868C0682A
:104B200040F040000B68D860002070470220FCE78E
:104B300010B50248FEF700FA10BD00003004002056
:104B400000BFFEE710B5074A0021074828F092FB96
:104B500006490860064A0021064828F08BFB0649F2
:104B6000086010BD2C430308DD330008100000204E
:104B700050430308353D0008140000200248006837
:104B8000C0F30220704700000CED00E010B50028D3
:104B900004DB0A07130E054A135406E00A07140E35
:104BA000034A00F00F031B1FD45410BD00E400E0C3
:104BB00018ED00E0EFF30580704770B5044600255E
:104BC00008E02168481C20600878303805EB850132
:104BD00000EB41052168087800F004F80028F0D1C6
:104BE000284670BD0146302903DB392901DC01204C
:104BF00070470020FCE7000010B54021074801F095
:104C0000FDFB00221E21064826F0FEFE0549086035
:104C100002F024FF00200449087010BD70B9002084
:104C2000297B0008280200202402002030B503461A
:104C3000B1F90040B2F90050AC4202DDB1F90040D8
:104C400001E0B2F900401C80B1F90240B2F9025013
:104C5000AC4202DDB1F9024001E0B2F902405C80F1
:104C6000B1F90440B2F90450AC4202DAB1F904409F
:104C700001E0B2F904409C80B1F90640B2F9065057
:104C8000AC4202DAB1F9064001E0B2F90640DC803C
:104C90000120B3F90040B3F90450AC4205DCB3F98C
:104CA0000240B3F90650AC4200DD002030BDF8B53B
:104CB00004460D4616460027B4F90000B5F9001069
:104CC000884212DBB4F90200B5F9021088420CDB0D
:104CD000B4F90400B5F90410884206DCB4F9060002
:104CE000B5F90610884200DC01270FB90020F8BD95
:104CF0000EB90120FBE72088ADF800006088ADF810
:104D0000020032466946284600F0A7F808B900209C
:104D1000EDE7A088ADF800006088ADF802003246EB
:104D20006946284600F099F808B90020DFE7208896
:104D3000ADF80000E088ADF802003246694628462A
:104D400000F08BF808B90020D1E7A088ADF800008A
:104D5000E088ADF8020032466946284600F07DF84A
:104D600008B90020C3E70120C1E70246B2F90000FC
:104D7000B1F90430984213DCB2F90400B1F9003003
:104D800098420DDBB2F90200B1F90630984207DC17
:104D9000B2F90600B1F90230984201DB01207047F8
:104DA0000020FCE7F8B504460D461646B4F90400A9
:104DB000B5F90010884211DBB4F90600B5F902100C
:104DC00088420BDBB4F90000B5F90410884205DC19
:104DD000B4F90200B5F90610884201DD0120F8BDE2
:104DE0000EB90020FBE72088ADF800006088ADF820
:104DF000020032466946284600F02FF808B100202C
:104E0000EDE7A088ADF800006088ADF802003246FA
:104E10006946284600F021F808B10020DFE7208825
:104E2000ADF80000E088ADF8020032466946284639
:104E300000F013F808B10020D1E7A088ADF8000019
:104E4000E088ADF8020032466946284600F005F8D1
:104E500008B10020C3E70120C1E72DE9FC5F05464A
:104E60000E4614464FF0000AB6F90000B5F90010DE
:104E7000884213DBB6F90000B5F9041088420DDC56
:104E8000B6F90200B5F90210884207DBB6F9020054
:104E9000B5F90610884201DC4FF0010ABAF1000FA3
:104EA00002D10020BDE8FC9F002C01DC0120F9E7C5
:104EB000284612F0F2FC834600EBDB7047102846D0
:104EC00012F063FC834600EBDB704FEA6008474555
:104ED00001DA384600E0404681464C4500DD4C464C
:104EE0002888ADF800002888204400B2ADF80400FE
:104EF0006888ADF802006888204400B2ADF806006A
:104F0000002231466846FFF7A8FF80B1BDF80400D3
:104F1000204400B2ADF80400BDF80600204400B201
:104F2000ADF806003146684623F028F9BAE7E8886C
:104F3000001B00B2ADF80200E888ADF806000022C0
:104F400031466846FFF789FF80B1BDF80400204470
:104F500000B2ADF80400BDF80200001B00B2ADF8CD
:104F600002003146684623F009F99BE7A888001B38
:104F700000B2ADF80000A888ADF804000022314668
:104F80006846FFF76AFF80B1BDF80000001B00B261
:104F9000ADF80000BDF80200001B00B2ADF8020041
:104FA0003146684623F0EAF87CE76888ADF80200ED
:104FB0006888204400B2ADF80600002231466846F9
:104FC000FFF74BFF80B1BDF80000001B00B2ADF849
:104FD0000000BDF80600204400B2ADF806003146DE
:104FE000684623F0CBF85DE701205BE710B5B1F927
:104FF0000030B2F90040A34202DAB1F9003001E01A
:10500000B2F900300380B1F90230B2F90240A34294
:1050100002DAB1F9023001E0B2F902304380B1F9AD
:105020000430B2F90440A34202DDB1F9043001E0DA
:10503000B2F904308380B1F90630B2F90640A342D8
:1050400002DDB1F9063001E0B2F90630C38010BDCF
:105050002DE9F0478AB0074626F05EFC8246002024
:1050600009901FB1C349F868086003E015F0A8FA79
:10507000C0490860BF490968086922F0DDFFBD48E2
:105080000068406920B1BB490968486922F0D4FF33
:10509000B8490968C86922F0CFFFB6490968086AAB
:1050A00022F0CAFFB3480068006948B90020B1493E
:1050B0000968A1F8500100BF00BF0AB0BDE8F08741
:1050C00023F05AFB23F0A0FAAA480068B0F8500178
:1050D00000284CD0A74800680068007CC0F340005E
:1050E000F0B1A448006815F0E9FA401E04B2A148E6
:1050F000006815F07DFA401E0FFA80F84346002242
:10510000114607A8009412F00DFC07A899490968F8
:105110000968896B48609748006805F045FD00BF45
:105120004FF480719348006830301DF0B0F92021B1
:105130009048006800F598701DF0A9F900208D498D
:105140000968A1F85001504626F0D8FB099089481B
:1051500000680068406A50B1864909680868854956
:10516000096809684B6A84490A68099998471CF0DC
:10517000C5FE00F059F900F021F980484569002D7D
:105180003FD11CF037FC04461BF066FB05460022AD
:105190007F21284622F001FE14F056FA0022014633
:1051A0000890284622F0DCFD14F0CBFD00220146D9
:1051B0000890284622F0B6FE00220321284622F05D
:1051C00097FE00220321284622F06BFE00220321D5
:1051D000284622F073FE00220321284622F07BFE9F
:1051E00000220321284622F090FE65A128461CF0EB
:1051F0003BFB00231A46062128461DF0E1FD5F48CF
:1052000045615E49086826F079FBB0F5967F10D2BB
:105210005948006841F28831884245D9574840686A
:10522000099908445549486008468068401C8860D0
:105230003AE026F071FB514908604E48006840682A
:1052400000684FF47A71B1FBF0F84C48406810B92F
:1052500001204A4948604948806808B9444608E046
:10526000464880684FF47A71484344494968B0FB26
:10527000F1F40020414948608860444500D9444623
:105280003E48006920443D4908610846C068401C0A
:10529000C86026F027FCC0F164094B46224639A1BC
:1052A00028461CF039FB00BF3A484668D6BB1CF0C4
:1052B000A1FB04461BF0D0FA064600227F213046AF
:1052C00022F06BFD14F0C0F9002201460890304630
:1052D00022F046FD14F035FD0022014608903046CC
:1052E00022F020FE00220321304622F001FE00229F
:1052F0000321304622F0D5FD00220321304622F062
:10530000DDFD00220321304622F0E5FD1CA13046E0
:105310001CF0AAFA00231A46042130461DF050FD65
:105320001C4846601B49086826F0E8FAB0F5967FED
:105330001ED926F0F1FA1749086002A81CF0B2FE47
:1053400004990298A0EB01084FEA9824A8EB842066
:105350006621B0FBF1F99DF821009DF820104B4625
:105360002246CDE900100CA130461CF0D5FA00BF52
:1053700000BFA2E6D8000020D4000020DCB7002047
:105380003F0000002575204650530A25752525202D
:1053900043505500DC00002025752E2575206B42FA
:1053A000207573656420282564202525290A256435
:1053B000252520667261672E0000000010B50024CC
:1053C00016E0C4EBC4000C4951F8200030B1C4EB26
:1053D000C401094A52F821001CF042FEC4EBC4018A
:1053E000054A02EB81001C211DF051F8601CC4B27B
:1053F000042CE6DB10BD00004CBA00200146094A2F
:1054000010680BE042688A4202D002688A4204D1E6
:10541000027E22F00102521C027640690028F1D17E
:1054200070470000AC0000207047000010B5042158
:10543000014800F0E3FF10BD64B9002010B51C2145
:10544000014800F0DBFF10BD7CB900202DE9FF4FC3
:105450008BB004469A46199DBAF1000F11D11898E5
:10546000B0F5807F0DD10020208060800C98401E18
:1054700000B2A0800D98401E00B2E0800FB0BDE8E1
:10548000F08FB5F900004042189948430121C1EB63
:10549000202000B22080B5F902004042189948430C
:1054A0000121C1EB202000B26080B5F900100C98FA
:1054B000401A18994843022101EB202000B2A08035
:1054C000B5F902100D98401A18994843022101EBD2
:1054D000202000B2E080BAF1000F14D12088298882
:1054E000084400B2208060886988084400B2608067
:1054F000A0882988084400B2A080E0886988084410
:1055000000B2E080BAE70A209AFBF0F00A900A980D
:10551000401C09900A9800EB8000AAEB400B0A9807
:1055200000B226F015FD0890099800B226F010FD93
:1055300007900A985A3000B226F00AFD06900998A2
:105540005A3000B226F004FD0590CBF10A0108980C
:105550004143079800FB0B100A2190FBF1F6CBF1B9
:105560000A0106984143059800FB0B100A2190FBA5
:10557000F1F776117F11B4F90080B4F9029007FBBE
:1055800008F006FB1900298801EBA02000B2ADF855
:10559000100006FB08F007FB0900698801EBA0205A
:1055A00000B2ADF81200B4F90480B4F9029007FB20
:1055B00008F006FB1900298801EBA02000B2ADF825
:1055C0000C0006FB08F007FB0900698801EBA0202E
:1055D00000B2ADF80E00B4F90080B4F9069007FBF4
:1055E00008F006FB1900298801EBA02000B2ADF8F5
:1055F000080006FB08F007FB0900698801EBA02002
:1056000000B2ADF80A00B4F90480B4F9069007FBC3
:1056100008F006FB1900298801EBA02000B2ADF8C4
:10562000040006FB08F007FB0900698801EBA020D5
:1056300000B2ADF80600BDF90800BDF910108842AF
:1056400002DABDF9080001E0BDF91000BDF904104F
:10565000BDF90C20914202DABDF9041001E0BDF958
:105660000C1088420BDABDF90800BDF91010884211
:1056700002DABDF908000DE0BDF910000AE0BDF93D
:105680000400BDF90C10884202DABDF9040001E003
:10569000BDF90C002080BDF90800BDF9101088424A
:1056A00002DDBDF9080001E0BDF91000BDF90410EC
:1056B000BDF90C20914202DDBDF9041001E0BDF9F5
:1056C0000C1088420BDDBDF90800BDF910108842AE
:1056D00002DDBDF908000DE0BDF910000AE0BDF9DA
:1056E0000400BDF90C10884202DDBDF9040001E0A0
:1056F000BDF90C00A080BDF90A00BDF91210884266
:1057000002DABDF90A0001E0BDF91200BDF9061088
:10571000BDF90E20914202DABDF9061001E0BDF993
:105720000E1088420BDABDF90A00BDF9121088424A
:1057300002DABDF90A000DE0BDF912000AE0BDF978
:105740000600BDF90E10884202DABDF9060001E03C
:10575000BDF90E006080BDF90A00BDF91210884243
:1057600002DDBDF90A0001E0BDF91200BDF9061025
:10577000BDF90E20914202DDBDF9061001E0BDF930
:105780000E1088420BDDBDF90A00BDF912108842E7
:1057900002DDBDF90A000DE0BDF912000AE0BDF915
:1057A0000600BDF90E10884202DDBDF9060001E0D9
:1057B000BDF90E00E08000BF60E62DE9F74F86B02E
:1057C000044620680590B4F908100798A0EB01087A
:1057D000B4F90A100898A0EB0109E089B0F5807FC0
:1057E00013D1206B00FB08F0E16A01FB1901606A2C
:1057F00000EBA10BE06A00FB08F0216B01FB090143
:10580000A06A00EBA10004902FE0A08980B9A06BF2
:1058100000FB08F04FEA6018A06B00FB09F04FEAAC
:105820006019606A00EB080BA06A484404901CE011
:10583000A06B00FB08F04FEA6018A06B00FB09F0BA
:105840004FEA6019206B00FB08F0E16A01FB1901C7
:10585000606A00EBA12BE06A00FB08F0216B01FB02
:105860000901A06A00EBA12004904FEA2B260498BE
:105870000712B4F90400B04203DC002009B0BDE80F
:10588000F08F002E01DA0020F8E7B4F90600B842E4
:1058900001DC0020F2E7002F01DA0020EEE73420DF
:1058A000005DC0F3800050B33420005DC0F34000C1
:1058B00078B90225B4F904007843684306FB050A69
:1058C000059800EB0A012A4604F114001CF08DFD36
:1058D0002CE00325B4F904007843684306FB050A6D
:1058E0006A1E059800EB0A0104F114001CF07DFD0E
:1058F0000AEB0500401E0599095CA17516E04FF002
:10590000000A0025208A03463AB231B2019004F120
:10591000180019F04FFA0290BDF80800A0823AB2C0
:1059200031B204F1180019F0A5F9A0753420005D1A
:1059300000F00100B0B14FF47F40002100F47C4240
:1059400041EA5211C0F3C40211430191BDF8042091
:1059500011460291A08ABDF80810884201D10020AA
:105960008CE700BFE07C08B9012087E70FFA8BF1D4
:10597000A187049801B2E18731B24020015339B2C6
:1059800042200153C4F844A084F84850204600F057
:1059900003F80390039871E72DE9F04F8DB00446AA
:1059A000D4F8009094F83C000C9094F83E000B90D2
:1059B0000C9870280BDA4FF0FF35B4F940002844FA
:1059C000002800DA00250C988030C7B213E00C984C
:1059D00090280EDD0125B4F940002844B4F90410E4
:1059E000884200DB00250C98C0F1FF008030C7B270
:1059F00001E00025FF270B9870280CDA4FF0FF36E6
:105A0000B4F942003044002800DA00260B988030B8
:105A100000F0FF0815E00B9890280FDD0126B4F97F
:105A200042003044B4F90610884200DB00260B988F
:105A3000C0F1FF00803000F0FF0802E000264FF0C8
:105A4000FF08A08A0A90A07D06900020059004908F
:105A500003903420005DC0F3800000285BD094F8F0
:105A60004800626C00FB052000EB0901022209A836
:105A70001CF0BBFCA28894F8480012FB00F2606C9A
:105A800002FB060000EB0901022208A81CF0ADFC95
:105A9000A28894F8480012FB00F2606C02FB060238
:105AA00094F8480000FB052000EB0901022207A83A
:105AB0001CF09BFC3420005DC0F3400000287ED029
:105AC00094F84800616C00FB05110844401E19F869
:105AD00000000590A18894F8480011FB00F1606C6B
